:1008550012089B12089F7F64EFF5F0A4FFAEF07CB1
:10086500007DFF120800C3EF941E7480948040053C
:0A0875001208A280E11208A580DC41
:04089B007590FF2233
:10087F00D2B0D2B1C2B0C2B130B2FDD2B3AF9022BA
:03089F00C2A022D2
:0308A200D2A022BF
:0308A500C2A022CC
:0300000002088F64
:0C088F00787FE4F6D8FD7581070208555B
:10080000BC000BBE0029EF8DF084FFADF022E4CCDC
:10081000F875F008EF2FFFEE33FEEC33FCEE9DECA5
:10082000984005FCEE9DFE0FD5F0E9E4CEFD22EDEB
:10083000F8F5F0EE8420D21CFEADF075F008EF2F35
:10084000FFED33FD4007985006D5F0F222C398FD26
:050850000FD5F0EA22C3
:00000001FF
